:080000000C942E010C94E102A6
:100008000C94B4020C9400000C9400000C940000B2
:100018000C9400000C9400000C9400000C94000058
:100028000C9400000C9400000C9400000C94000048
:100038000C9400000C9400000C9400000C94000038
:100048000C9400000C9400000C9400001027E803A6
:1000580064000A0001000010000110000100000007
:100068006F007E00800082008400456E74657220F7
:10007800272A2720746F200A207374617274202144
:100088002000456E746572202A0A00456E746572F8
:1000980020796F75722049440A00496E76616C694F
:1000A800642049440A20456E746572202A00456E12
:1000B80074657220796F75722050430A0057656C19
:1000C800636F6D652C2050726F660A0057656C630C
:1000D8006F6D652C0A204D6F68656D6D65640A004B
:1000E80057656C636F6D652C205368657269660A85
:1000F8000057656C636F6D652C2041686D65640AF7
:100108000057656C636F6D652C204A6F6A6F0A0033
:1001180057726F6E672070617373636F64650A202E
:10012800456E746572202A00257500456E746572E7
:10013800206F6C6420504300456E746572206E65B4
:10014800772050430052652D656E746572206E6588
:1001580077205043004E65772050432073746F72A8
:1001680065640050437320617265206E6F74204986
:1001780064656E746963616C00456E7465722041D4
:10018800646D696E20504300456E74657220737407
:100198007564656E74204944005043206973207368
:1001A800746F72656400436F6E7461637420416498
:1001B8006D696E0080C002000A0066000900D7025F
:1001C8006800180060017200090078018A000F00B9
:1001D8008101930014009001A2000F00A401B60051
:1001E8000F00B301C5001400C201D4001100D601EC
:1001F800E8001000E701F9000F00F70109011800F5
:10020800060218010F001E02930014002D02A2001E
:100218000D00410233010D004E02400110005B0247
:100228004D010E006B025D01160079026B010F0093
:100238008F02810111009E0290010D00AF02400162
:100248000D00BC02A1010E00C902AE010200E102CC
:10025800BC010000F894EE27ECBBF1E0FBBFEBBF5C
:10026800E5BF8DE0A2E0BB27ED938A95E9F780E032
:1002780094E0A0E6ED930197E9F7EEEBF1E08591C4
:100288009591009761F0A591B59105901590BF01E2
:10029800F00105900D920197E1F7FB01F0CFEFE532
:1002A800EDBFE4E0EEBFC0E6D1E00C945B01EFEFF8
:1002B800E1BBE3E0E5BFE5BFEBB7E064EBBFE0E03F
:1002C800E5BFEBB7E068EBBF919A929AE7E0E7BB2E
:1002D800E8EFE8BBA6D3FA93EA93ABECB0E01DD104
:1002E800E091D902F091DA02FA93EA93A1E8B0E03A
:1002F80014D1E091DB02F091DC02FA93EA93A5E4D1
:10030800B1E00BD1E091DD02F091DE02FA93EA93BD
:10031800AAEAB1E002D1E091DF02F091E002FA939B
:10032800EA93A3EBB0E0F9D0A0E1DFD1A0E6B1E019
:10033800CDD195D0AE2EBB24EAE2F0E0EA15FB055C
:1003480029F0A4D1A8E7B1E0C1D14AC09FD1A1E862
:10035800B1E06CD329F49AD1A0E9B1E0B7D1E9CFE3
:1003680095D1A4EAB1E069D31E2FD201F0E0EA17D3
:10037800FB0781F5F301EF36A0E0FA0721F486D1F7
:10038800A3EBB1E01FC0EE37A0E0FA0721F47ED15D
:10039800A2ECB1E017C0E038A0E0FA0721F476D16A
:1003A800A6EDB1E00FC0E238A0E0FA0721F46ED163
:1003B800A7EEB1E007C0E438A0E0FA0721F466D15F
:1003C800A7EFB1E083D1919AA0EDB7E0B7D39198A8
:1003D8005DD1AFCF5BD1A6E0B2E078D1B8D0A9CFDC
:1003E800A8CFFFCF6AD39D0100E010E00530E0E020
:1003F8001E0784F4F801A7EDB2E0EE0FFF1FAE0F61
:10040800BF1F8FD3E217F30711F4E1E06BC10F5F51
:100418001F4FECCFE0E066C14ED300E010E020E0D3
:1004280030E02330E0E03E07BCF4F801AAE0B0E099
:1004380065D38F0114D04E2F5527E0E3F1E0FA93EE
:10044800EA93FA014ED375D384E0AFD22696040F0F
:10045800151F2F5F3F4FE5CFF80134D36AC0C0980E
:10046800C19AC29AE6B3E63F29F4B39BFECFE1E016
:10047800089514C0EE3E29F4B49BFECFE4E008953D
:100488000DC0EE3D29F4B59BFECFE7E0089506C008
:10049800EE3B21F4B69BFECFEAE20895C09AC198DC
:1004A800C29AE6B3E53F29F4B39BFECFE2E0089594
:1004B80014C0ED3E29F4B49BFECFE5E008950DC0CD
:1004C800ED3D29F4B59BFECFE8E0089506C0ED3B6D
:1004D80021F4B69BFECFE0E00895C09AC19AC29875
:1004E800E6B3E33F29F4B39BFECFE3E0089514C0DD
:1004F800EB3E29F4B49BFECFE6E008950DC0EB3D3A
:1005080029F4B59BFECFE9E0089506C0EB3B21F442
:10051800B69BFECFE3E20895A2CFCFD28D012C8106
:100528003D81E199FECF3FBB2EBB0DBBE29AE19A1C
:10053800CBD2269608951A930A938D01E199FECF9E
:100548001FBB0EBBE09AEDB3099119910895959AD6
:10055800A8EEB3E0F3D29598A4EFB1E0EFD20895F6
:1005680072D2AEE1B2E062D221F490D0ADE2B2E054
:10057800ADD08CD0A1E4B2E060D20E2F1127401686
:100588005106D1F4AEE4B2E0A1D046DF2F017ED00F
:10059800ABE5B2E09BD040DF4F018414950441F4F1
:1005A8007A926A92D401B9DF71D0ABE6B2E003C0A7
:1005B8006DD0A9E7B2E08AD025C045D2AFE8B2E055
:1005C80085D02ADF3F012DD2E615F705A9F45ED0C4
:1005D800AEE9B2E07BD020DF3F0158D0AFEAB2E00D
:1005E80075D01ADF8F017A926A92D80196DF4ED0C1
:1005F800ACEBB2E06BD006C049D0A9ECB2E066D053
:10060800A6DFA5DF09911991E991EFBFF991E99169
:10061800B991A9919991899179916991F9901990D4
:10062800099018951A931A2FEBB3EF70AE2FE12F9C
:10063800E07FEA2BEBBB8DE08A95F1F7DA9A8DE043
:100648008A95F1F7DA988DE08A95F1F778C0AA9340
:10065800A881E8DFE881E295E883A881E3DF85E8FF
:100668008A95F1F7219608951A930A931A2F0A8109
:10067800E12FF0E0EF51FD4FE081E00FAE2FE7DF13
:10068800D02EC12E1981088123960895A2E0EBD1BE
:10069800ACE0DDDFA1E0E7D1E0E0CE2EDE2E08956C
:1006A8001A931A2F1A3021F0E091E502DE1640F075
:1006B800E0E0EA93C394AC2DD7DF1A3009F43FC0C9
:1006C800D394D89AA12FC3DFD89839C0F6D19D0109
:1006D800D9012F5F3F4FEC911E2FE03019F0A12F69
:1006E800DFDFF6CFF1D1249608951A931A2FEAB3D3
:1006F800E06FEABBD29AD09AD19ADA98D898D9986A
:100708001093E502E12FE058E093E302E12FE05473
:10071800E093E402A4E1B0E011D2A9D1A8D1A7D115
:10072800A0E280DF88EC90E00197F1F7A8E28FDF84
:10073800A4E08DDFA5E88BDFA6E089DFA7DF1991AC
:100748000895BA93AA932697B6D110E0AC85BD85D3
:10075800E0E0F0E0ED93FC93EA89FB893196EA8BBF
:10076800FB8B3197E4912E2FE03009F409C1E12F7A
:10077800E03031F4253211F411E001C07FD1FFC01F
:10078800E130A1F4253211F479D1F8C012E040E04B
:1007980000E02D3211F401E0F2C02B3211F44BE2EB
:1007A800EEC0203211F440E2EAC002C0E23039F46F
:1007B80050E013E0203311F40068E1C003C0E330D7
:1007C80009F0DDC0203310F02A3308F007C0AAE092
:1007D8005A9F502DE22FE0535E0FD1C0E22FE3362F
:1007E80039F453D1E889F989A481AA9354D1C6C0B0
:1007F800E33729F44AD155D1FBD01E2F07C0E03783
:1008080049F443D14ED100D11E2F086002600F7702
:1008180030E038C0E43611F0E93611F4046002C063
:10082800E53731F4E4E5F0E0EE83FF8315E00CC032
:10083800E83511F4086003C0E83709F09FC0EEE519
:10084800F0E0EE83FF8314E002FF15C01ED1A889F3
:10085800B9891496ED91FD91EA87FB87AB85AA23A8
:1008680022F43BD1EA87FB874DE2403011F01F5F4D
:1008780001C00B7F07C009D1A889B989149651D145
:10088800EA87FB8700FD10C0151770F407FF08C042
:1008980002FF04C00B7F242F115001C020E301C0C8
:1008A80020E2ECD05150F0CF312F01FF16C030308C
:1008B80099F003FF06C0EE81FF812591EE83FF8347
:1008C80005C0AE81BF812D91AE83BF83D7D0503094
:1008D80009F051503150EBCF48C020E3EE81FF8141
:1008E80024D1E887F987EE81FF813296EE83FF8372
:1008F800E885F985AA85BB85AE17BF0750F02F5F3D
:10090800A885B985EA85FB85EA1BFB0BEA87FB8787
:10091800EFCF2A3328F003FF02C0295F01C0295D09
:1009280004FD19C0213320F4A885B985119709F46D
:1009380009C0531710F000FF01C011C020E207FFE3
:100948000AC020E3006102FF06C00B7F4A93A3D0D0
:10095800503009F0515092D0503009F05150315078
:10096800A885B985129708F0B8CF00FF07C05030A6
:1009780029F05150E0E2EA938ED0F9CF10E0ECCEA6
:10098800AC85BD85ED91FD919DD06496089595D077
:100998008D013C81A32F84DED801ED91FD91319624
:1009A800FE93EE9391D025960895FF92F82E269700
:1009B8001A930A93DE0114968CD08D01E0E0EC8343
:1009C800ED83EE83EF83DE01189683D0ED91FD91E0
:1009D800FA93EA931A930A93EBECF4E0FA93EA9306
:1009E800DE011896AEDE198108812896FF900895D9
:1009F800BA93AA93A991B991EE27FF276D9166231F
:100A080011F03196FBCF0895BA93AA93AA27BB2772
:100A1800E991F9910590002011F01196FBCFFD01A5
:100A28000895E091D702F091D80208954FDEF4DCE2
:100A38003F01D301D7DCE030089548DEEDDC2F011B
:100A480025DED30178CD0A921A92FA926A937A93A4
:100A58008A939A93AA93BA93EA93FA93EFB7EA938D
:100A68001A930A930895F3DDA3E0B0E067C0A0E30A
:100A7800D9DD88EC90E00197F1F708952A93AD85C8
:100A8800BE85EF85F88909950895E889F98934972D
:100A9800E88BF98B0895AD85BE85EF85F8890995B2
:100AA8000895A889B9891496ED91FD91EE83FF8385
:100AB800AE81BF8108955A934A933A932A931A9321
:100AC8000A9308955D814C813B812A8119810881AF
:100AD80008950024AF0DB01D0895F195E195F040FB
:100AE80008956F2F660F660B762F0895FA9FF02DE5
:100AF800EB9FF00DEA9FE02DF10D089504D0F6DF8D
:100B08000EF4EBDF0895E894F7FF02C0E6DF68947F
:100B1800B7FF06C0B195A195B04000F8039400FA5C
:100B28000895ED91FC91119708950590F491E02DA9
:100B380008957A936A93FA93EA930895109639F090
:100B4800A89580ED97E00197F1F71197C9F70895F7
:00000001FF
